:020000040800F2
:10000000383C0020450100086B240008531D0008FF
:10001000692400087D040008DD33000800000000AA
:10002000000000000000000000000000252F000874
:10003000A5050008000000006D2400084D320008EE
:100040005F0100085F0100085F0100085F01000810
:100050005F0100085F0100085F0100085F01000800
:100060005F0100085F0100085F0100085F010008F0
:100070005F0100085F0100085F0100085F010008E0
:100080005F0100085F0100085F0100085F010008D0
:100090005F0100085F0100085F0100085F010008C0
:1000A0005F0100085F0100085F0100085F010008B0
:1000B0005F0100085F0100085F0100085F010008A0
:1000C0005F0100085F0100085F0100085F01000890
:1000D0005F0100085F0100085F0100085F01000880
:1000E0005F0100085F0100085F0100085F01000870
:1000F0005F0100085F0100085F0100085F01000860
:100100005F0100085F0100085F0100085F0100084F
:100110005F0100085F0100085F0100085F0100083F
:100120005F0100085F0100085F0100085F0100082F
:10013000DFF80CD000F0FAF800480047254A000824
:10014000383C00200648804706480047FEE7FEE7A7
:10015000FEE7FEE7FEE7FEE7FEE7FEE7FEE7FEE777
:100160009F32000831010008202A04DB203A21FADE
:1001700002F00021704721FA02F3D040C2F12002C0
:100180009140084319467047D2B201E000F8012BB4
:10019000491EFBD270470022F6E710B513460A4607
:1001A00004461946FFF7F0FF204610BD80EA010221
:1001B00010B502F00043400022D04A001FD0010ECB
:1001C00001EB1261C0F35600C2F3560240F4000086
:1001D00042F40002A0FB022000047F39140400D086
:1001E000401C50EA124001D44000491EC2B20C0625
:1001F00004EBD010401C4008802A02D003E000200D
:1002000010BD20F00100002900DA0020184310BDC5
:1002100030B480EA010202F0004530F0004221F0E3
:10022000004013D090B1C30DD40DC2F31601C0F33A
:100230001600E41A41F4000140F400027D349142BA
:1002400001D3641C00E04900002C02DA30BC00201D
:1002500070474FF400000023914201D3891A0343F1
:1002600040084FEA4101F7D151B1914202D14FF01C
:10027000004105E002D24FF0010101E06FF0010101
:1002800003EBC450284430BC00F019B89623002278
:10029000114600F01DB820F00040C10DC0F316005B
:1002A00040F400007F2901DA00207047962903DC22
:1002B000C1F19601C84070479639884070470029BF
:1002C000A8BF7047401C490008BF20F001007047DC
:1002D00010B4B0FA80FC00FA0CF050EA010404BF3C
:1002E00010BC704749B1CCF1200421FA04F411FA92
:1002F0000CF118BF012121430843A3EB0C01CB1DD6
:100300004FEA00614FEA102042BF002010BC704746
:1003100000EBC35010440029A4BF10BC7047401C20
:10032000490008BF20F0010010BC7047064C074D83
:1003300006E0E06840F0010394E8070098471034B5
:10034000AC42F6D3FFF7F8FE3C6D00085C6D000888
:10035000164908B504200880881C018801880A060F
:1003600001880088C9B2120AC0B202EB0121084418
:10037000A0F5A901663903D0A0F50041663901D185
:1003800001F0E8FC00204FF4A0734FF4F072014636
:10039000009001F08DFD142000F07AFA0122BDE8F2
:1003A00008405103024800F070BC0000FEFF0160ED
:1003B0000014014010B501242103034800F060FC43
:1003C00000B10024204610BD00080140014601484C
:1003D00001F0C4B82C29002010B5044801F0D0F871
:1003E000042801D0012010BD002010BD2C290020C0
:1003F00010B500F015F8012801D0012010BD074804
:1004000001F0D4F8040006D14FF40061034800F075
:100410005FFF00B10124204610BD00002C29002000
:1004200008B501208DF80000FFF7C4FF10B90020C7
:100430008DF800009DF8000008BD000038B50024CC
:10044000009313460A460146034801F037F900B10C
:100450000124204638BD00002C29002038B5002496
:10046000009313460A460146034801F023FA00B1FF
:100470000124204638BD00002C290020FEE70000A2
:1004800000B589B020216846FFF785FE69460C4813
:1004900003F036FF10B1022009B000BD09490098F1
:1004A00048600098B0F5F22F08D2074800F0A0F895
:1004B00008B10320F0E700F009F8EDE70020EBE7D2
:1004C000306700080C000020007000082DE9FF4193
:1004D00000200290244C0390012522486E032060E6
:1004E00002AB32462149224803F044FE18B10220F3
:1004F00004B0BDE8F08102980390B04200D200251C
:100500001849206849420844FFF7C0FE0746606862
:10051000FFF7BCFE01463846FFF77AFE1549FFF7A4
:1005200045FEFFF7B8FE82B201214FF4FC60CDE931
:1005300000011423C821002001F0BDFD0EA002F02F
:100540001BFE029809498208206800F07BF808B178
:100550000420CDE720680399012D08442060BFD016
:100560000020C5E7007000080C0000208604002071
:10057000B82600200000F0433E3E000030B504469F
:100580000020651804E000BF14F8011B02F016FFFC
:10059000AC42F9D3002102F011FFBDE83040002148
:1005A00002F00CBF70477047002200F001B8000055
:1005B00030B50E4B054601205C7A012C15D8587ACF
:1005C00000241C54587A03EB800045605D7A03F1E7
:1005D00008002A54587A421C5A72303008703A2067
:1005E00048702F208870CC70002030BD282C00204F
:1005F00030B585B000250446049500F0FDF90A48A1
:100600000121001BC00A03900095CDE9011404A943
:10061000684600F04FF9044600F0A2F914B1012039
:1006200005B030BD0020FBE70000080810B500F061
:10063000E3F903493420C860BDE8104000F090B9E8
:10064000002002402DE9F041164688460546002468
:1006500000F0D2F90E4F13E058F824200023294669
:10066000022000F087F910B10320BDE8F08158F8AE
:1006700024002968814201D00220F6E7641C2D1D68
:10068000B44201D2BD42E7D900F06AF90020ECE79C
:10069000FCFF070806490020C8610648016941F0CF
:1006A00004010161016941F04001016170470000EE
:1006B000F029002000200240064A0021D1610649AD
:1006C0000A6942F002020A614861086940F040008C
:1006D00008617047F029002000200240044B0022EE
:1006E000DA61044A136943F0010313610180704722
:1006F000F02900200020024014480022C168CB06E7
:10070000134904D5CA6942F00202CA611022C368C3
:100710005B0705D5CB6943F00103CB6142F00402CE
:10072000C369DB0707D0CB6943F00403CB61C16920
:1007300021F00101C161A2F58071013901D0C260CF
:100740007047C16921F00101C1617047002002407A
:10075000F029002070B5054600F09CFA0646114CC1
:1007600009E0681C07D025B100F094FA801BA8426C
:1007700001D9032070BDE068C007F2D1E0688006AF
:1007800001D52020E060E068C00605D4E069C0071C
:1007900002D1E068400703D5FFF7AEFF012070BD2E
:1007A000002070BD0020024030B5B3F5804F05D069
:1007B0006FF0704140F82210002030BD8C690B684A
:1007C0008D6823434C688989240144EA0524234326
:1007D00043EA014150F82230014C23401943E9E734
:1007E0000000F0CF10B50A6850F8223023F0010362
:1007F00040F822308C68082C23D000234A6822431A
:10080000CC681C430B6922431A434B690E4C1A43B4
:10081000CB691A430B6A1A434B6A1A438B6A1A4311
:10082000CB6A1A430B6B1A438B6913434A6B0968F3
:100830001A4350F82130A343134340F821300020DD
:1008400010BD4023DAE700007FFF0F0030B5D1E98B
:10085000003443EA04138C688D89240244EA054479
:1008600023430C8A094D00EB820005EB045423431B
:100870000C7D6D0105EB0464896923430B434168DA
:1008800001F040410B434360002030BD0000F0FF09
:1008900070B5044600F0FEF90546601C02D004481D
:1008A0000078044400F0F6F9401BA042FAD370BD72
:1008B000240000202DE9F047054626480F46012672
:1008C000017E01290ED00121814601762868224C43
:1008D000DFF88880022808D0A2462046FFF73AFFBA
:1008E000A8B131E00220BDE8F0872046FFF732FFD3
:1008F00008BB0120FFF7CEFE2046FFF72BFFD8F8FC
:100900001010064621F00401C8F810101CE04FF04A
:10091000FF303860AC6811E02046FFF7CDFE50464E
:10092000FFF718FFD8F81010060021F00201C8F8F0
:10093000101001D03C6007E004F50064D5E9020125
:1009400000EBC120A042E7D8002189F818103046FA
:10095000C9E70000F02900200065CD1D00200240FD
:100960000348016941F080010161002070470000E7
:10097000002002402DE9F05F07461C48884600240D
:10098000017E15461E46012909D00121DFF860A02D
:10099000814601765046FFF7DDFE18B122E00220C5
:1009A000BDE8F09F012F02D0022F00D00427D346CC
:1009B000DFF840A0220128463146FFF7D5FB81B27F
:1009C00008EB4400FFF78AFE5846FFF7C3FEDAF84B
:1009D000102022F00102CAF8102018B9641CE4B2F9
:1009E000BC42E7D3002289F81820D9E7F02900207B
:1009F0000065CD1D00200240064900200A6912064C
:100A000007D5054A4A60054A4A600969090600D5C2
:100A1000012070470020024023016745AB89EFCDDC
:100A200030B585B0002000900190029003901248EC
:100A3000016800291ED1012101601048416941F47B
:100A4000807141614069022400F4807004904FF687
:100A50008070CDE90004032569460395084800F03D
:100A600013F84CF6B370CDE90004694603950548C8
:100A700000F00AF805B030BD1C0000200010024054
:100A800000180140001401402DE9F84FDFF8C8912B
:100A9000002409F1040A0AF1040B23460F270BF185
:100AA000040ED1E00125A54006EA0502AA4276D14E
:100AB000DFF8A8C14E68A6EB0C0866452BD00DDC0C
:100AC000032E34D005DC36B3012E19D0022E2FD1DF
:100AD0001BE0112E16D0122E2AD119E0B8F5881F6E
:100AE00019D006DCB8F5803F15D0B8F5801F1FD1AE
:100AF00011E0B8F5001F0ED0B8F5041F18D10AE0B8
:100B0000CB6815E0CB681B1D12E0CB6808330FE003
:100B1000CB680C330CE08B682BB1012B4FF0080332
:100B200003D0456104E0042302E0056100E00023F6
:100B3000FF2A01D8064601E000F104064FEA8405C9
:100B400001D9A5F12005D6F8008007FA05FC28EAAE
:100B50000C0803FA05F548EA0508C6F800804D6858
:100B6000ED0070D53E4DAE6946F00106AE61AD694F
:100B700024F0030605F0010500953A4D06EB050C3F
:100B8000DCF80850A607360F07FA06F825EA08052C
:100B9000DFF8D480404503D14FF0000825E052E053
:100BA000DFF8C880404502D14FF001081DE0DFF8B2
:100BB000C080404502D14FF0020816E0DFF8B48053
:100BC000404502D14FF003080FE0DFF8AC8040450C
:100BD00002D14FF0040808E0DFF8A080404502D1C0
:100BE0004FF0050801E04FF0060808FA06F848EA59
:100BF0000508CCF808804D68D9F80060ED034D4633
:100C000001D5164300E096432E604D68DAF8006087
:100C1000AD03554601D5164300E096432E604D685E
:100C2000DBF80060ED025D4601D5164300E0964317
:100C30002E604D68DEF80060AD02754601D51643A2
:100C400000E096432E60641C0A681646E2407FF47A
:100C500029AFBDE8F88F000000040140000011102A
:100C6000001002400000014000080140000C01405B
:100C7000001001400014014000180140001C014018
:100C80008068084000D0012070470AB101617047B8
:100C90000904FBE701488068704700002400002039
:100CA0000248816802781144816070472400002066
:100CB000074810B5016841F010010160032000F001
:100CC00067F8002000F006F800F024F8002010BDBE
:100CD0000020024070B50D4D04464FF47A7128781B
:100CE000B1FBF0F00A490968B1FBF0F000F0FCFE3E
:100CF00048B9102C07D200222146501E00F028F8D7
:100D000000206C6070BD012070BD00002400002038
:100D1000300000200C4808B5816941F00101816173
:100D2000816901F001010091C16941F08051C16107
:100D3000C06900F0805000900448416821F0E061F3
:100D400041F00071416008BD001002400000014008
:100D5000F0B40E4B1B680C46C3F30223C3F1070526
:100D6000042D00D90425191D072901D2002300E014
:100D7000DB1E012606FA05F1491E214099409E40DE
:100D8000761E16403143F0BC02F0F0BB0CED00E0E3
:100D9000064900F0070208684FF6FF03184040EAD2
:100DA0000220034A10430860704700000CED00E089
:100DB0000000FA05BFF34F8F05480168054A01F4AA
:100DC000E06111430160BFF34F8F00BFFDE70000FA
:100DD0000CED00E00400FA052DE9F0470F46050090
:100DE00061D0434E306800F00700B84209D2306845
:100DF00020F0070038433060306800F00700B84248
:100E000051D128683B4C810712D5400703D5606853
:100E100040F4E06060602878000703D5606840F423
:100E2000605060606068A96820F0F000084360606E
:100E30002878C00728D06868012810D021680228C7
:100E400010D0890700292EDA616821F003010143DF
:100E50006160FFF71FFF804641F288390DE021688D
:100E60008903EFE78901EDE7FFF714FFA0EB080125
:100E7000494502D90320BDE8F0876068696800F041
:100E80000C00B0EB810FEFD1306800F00700B842E2
:100E90000BD9306820F0070038433060306800F02C
:100EA0000700B84201D00120E5E72878400705D5C2
:100EB0006068E96820F4E060084360602878000713
:100EC00006D56068296920F4605040EAC10060607E
:100ED00000F038F86168084AC1F30311515CC8405A
:100EE0000649086006480068FFF7F4FE0020C2E7E4
:100EF000002002400010024040670008300000203F
:100F0000280000200448054900684968044AC1F3E4
:100F10000221515CC84070473000002000100240A0
:100F2000506700080448054900684968044AC1F34D
:100F3000C221515CC84070473000002000100240C0
:100F40005067000812A185B00FC98DE80F0014A0EA
:100F5000144A006804905168134801F00C03042BF4
:100F600010D0082B0ED1C1F38343C9031DF8030031
:100F70000AD5516804AAC1F34041515C0A4A504362
:100F8000B0FBF1F005B0704708494843FAE70000AC
:100F900002030405060708090A0B0C0D0E0F1010BA
:100FA000010200000010024000127A0000093D001A
:100FB0002DE9F84F040070D02078C04DC00749D00B
:100FC0006868C0F38100012807D06868C0F3810019
:100FD000022809D16868C00306D52868800339D57E
:100FE00060680028E7D035E06068B0F5803F0BD03E
:100FF00010B1B0F5A02F11D0286820F480302860FF
:10100000286820F4802002E0286840F480302860BE
:10101000606890B1FFF73EFE06460AE0286840F49B
:1010200080202860F0E700BFFFF734FE801B6428B3
:1010300073D828688003F7D50CE0FFF72BFE06462F
:1010400005E000BFFFF726FE801B6428F0D8286863
:101050008003F7D420789A4E80074FF001094FF0B3
:10106000000839D5686810F00C0F07D06868C0F325
:101070008100022809D16868C00306D42868800767
:1010800014D52069012808D110E02069B0B1C6F854
:101090000090FFF7FFFD074605E00AE1FFF7FAFDC4
:1010A000C01B0228C4D828688007F7D52868616962
:1010B00020F0F80040EAC10028600DE0C6F800808A
:1010C000FFF7E8FD074604E0FFF7E4FDC01B022838
:1010D00023D828688007F7D4207800072CD57948D2
:1010E000A169D9B1C0F80090FFF7D4FD074604E02C
:1010F000FFF7D0FDC01B02280FD8686A8007F7D51C
:1011000071484FF4FA510068B0FBF1F0009000BF55
:101110000098411E0091FAD20EE080E0C0F80080F5
:10112000FFF7B8FD074604E0FFF7B4FDC01B022837
:1011300075D8686A8007F7D42078400760D5E869D9
:101140000027C00008D4E86940F08050E861E869F1
:10115000012700F0805000905C480168C90513D455
:101160000168834641F480710160FFF793FD824678
:1011700006E000BFFFF78EFDA0EB0A0064284ED802
:10118000DBF80000C005F5D5E06801280AD008B1F9
:10119000052813D0286A20F001002862286A20F070
:1011A000040002E0286A40F001002862E06841F291
:1011B000883B98B1FFF76EFD82460BE0286A40F04D
:1011C00004002862EEE700BFFFF764FDA0EB0A0110
:1011D00059455AD8286A8007F6D50CE0FFF75AFD22
:1011E000824605E0FFF756FDA0EB0A0159454CD8B1
:1011F000286A8007F6D41FB1E86920F08050E861C2
:10120000E06988B36968C1F38101022944D00228EA
:10121000C6F8608004D0FFF73DFD044638E034E0B6
:10122000FFF738FD074604E0FFF734FDC01B022836
:101230002BD828688001F7D4206AB0F5803F05D10B
:101240006868A16820F4003008436860D4E90801A8
:101250000843696821F4741108436860C6F8609017
:10126000FFF718FD044606E025E000BFFFF712FD7A
:10127000001B022809D828688001F7D51BE000BFB1
:10128000FFF708FD001B022802D90320BDE8F88FF4
:1012900028688001F4D40EE00128F7D06868226A3B
:1012A00000F48031914204D1616A00F470108842E8
:1012B00001D00120EAE70020E8E70000001002402A
:1012C0000000424280044242300000200070004092
:1012D0002DE9FE43044603200F4684F83400606C79
:1012E00003285AD0B7F5805F57D04FF40066002529
:1012F0004FF08068B7421CD100950195002120680D
:1013000001F02AF9800121D46946204601F04AFC07
:1013100098BB0198400332D5B4F85000010420680E
:1013200001F04FF948BB0221206822E0A06B28435E
:1013300027E01FB1A06B40F0006022E0009501950E
:101340000021206801F008F9800101D53546EDE75C
:101350006946204601F026FC78B90198C0030ED5F5
:10136000B4F850000104206801F02BF928B90021DD
:10137000206801F072F90028D8D00546D6E7454626
:10138000D4E7A063A06B012558B121680C4888639D
:1013900084F834500120BDE8FE83A06B40F08050FB
:1013A000EFE7211DD4E905060EC90097CDE9010636
:1013B000206801F0D4F884F834500020EBE70000F6
:1013C000FF054000F0B5426E920F0A70426EC2F304
:1013D00083624A70426EC2F301628A70426E120CDE
:1013E000CA70B0F86420120A0A7190F864204A7139
:1013F000826E120DCA80826EC2F303420A72B0F886
:101400006820C2F3C0324A72B0F86820C2F380325A
:101410008A72B0F86820C2F34032CA72B0F868200D
:10142000C2F300320A7300264E73426C4FF400750B
:10143000012462B1012A3AD0026847499163816B65
:1014400041F08051816380F834400120F0BDB0F854
:101450006820C36E9205120D42EA93720A61C26E51
:10146000C2F3C2620A75C26EC2F302624A75C26EEC
:10147000C2F342528A75C26EC2F38242CA75C26E0C
:10148000C2F3C2320A760A69521C42650B7E03F02F
:1014900007039B1C9A4042650B7A03F00F0704FA7E
:1014A00007F383655B0A5A43C0E917250EE090F8FD
:1014B0006820C36E9206920A42EA13420A610A69E0
:1014C000521C92024265C0E91652056630F86C2F34
:1014D000C2F3803201F8192F0288C2F3C6124A7093
:1014E000027802F07F028A704268D20FCA704268A6
:1014F000C2F341720A714268C2F382624A71426861
:10150000C2F383528A714268C2F34052CA710E72AA
:101510004268C2F300424A728288C2F3C0328A72C1
:101520008288C2F38032CA728288C2F340320A7360
:101530008288C2F300324A738288C2F381228A739E
:101540008288C2F30122CA730079C0F3460008748E
:101550004C740020F0BD0000FF054000426C0A60A2
:10156000826C4A60C26C8A60026DCA60426D0A6118
:10157000826D4A61C26D8A61006EC8610020704749
:1015800070B50446B0F8500000250104206801F051
:101590006EF918B1A16B0143A16304E0002120683A
:1015A00000F0DAFF0546C5F3432070BD70B50400B6
:1015B0000ED094F83400002518B92577204600F0A5
:1015C0003BF8032084F83400204600F00BF808B103
:1015D000012070BDA5632563012084F8340000203C
:1015E00070BD0000FEB50025044676200095CDE9CB
:1015F000015029460B460A46206800F0B0FF08B1AA
:101600000120FEBD0B4E46F8A05F206800F0B9FF38
:1016100001253560204601F0A7FB20B9204601F0E6
:101620002BFB0028EDD084F83450A16B0143A1635B
:10163000E6E700000000304230B585B0002100919F
:101640000191029103910068184988422BD11848F2
:10165000416941F480614161416901F48061049113
:10166000816941F010018161816901F010010491EB
:10167000816941F0200181618069022400F020002D
:1016800004904FF4F850CDE9000403256946039512
:101690000848FFF7F9F90420CDE9000469460395ED
:1016A0000548FFF7F1F905B030BD000000800140AA
:1016B0000010024000100140001401402DE9F04FDD
:1016C00087B09B4616460D460446FFF7E3FA0090A6
:1016D0003DB194F83400012807D0A06B40F00050D1
:1016E0000DE0A06B40F0006009E00027A763E16D0A
:1016F00006EB0B00884204D9A06B40F00070A06399
:1017000095E0032084F834002068C762606C0128EB
:1017100000D076024FF40071206800F085FFDFF8FA
:1017200090A1012140B12368C3F838A0A26B024305
:10173000A26384F834107AE04FF0FF3001904FEA52
:101740004B200290902003900220CDE904070691DF
:101750008846B94601A9206800F0E8FEBBF1010FF8
:1017600006D9022020633146206800F0F1FF05E031
:10177000C4F830803146206801F003F830B12268A7
:10178000C2F838A0A16B0143A1634CE0029E1EE0A9
:10179000406B000413D596B10027206800F0F9FED5
:1017A00005F8010B010A05F8011B010C05F8021BE5
:1017B000000E361F7F1C05F8010C082FEDD3FFF734
:1017C00069FA0099411A109881421DD2E0B120684F
:1017D000426B40F22A310A42DAD0416BC90509D581
:1017E000BBF1010F06D9616C032903D001F070F839
:1017F0000028C4D12068416B09071AD5C0F838A069
:10180000A06B40F0080051E02168C1F838A0A06B3F
:1018100040F00040A06384F83480C4F83090032086
:1018200007B0BDE8F08F84F83480C4F83090012010
:10183000F6E7416B890705D5C0F838A0A06B40F0EA
:10184000020033E0416B89061CD5C0F838A0A06BBC
:1018500040F020002AE000BF00F09BFE05F8010BDD
:10186000010A05F8011B010C05F8021B000E05F822
:10187000010C361FFFF70EFA0099411A10988142A9
:101880000ED268B12068416B890201D5002EE3D1E8
:10189000216840F23A50886384F834800020BFE722
:1018A0002168C1F838A0A06B40F00040A063BAE7FF
:1018B000FF0540002DE9FF4F8DB016460D4604464A
:1018C000FFF7E8F90B903DB194F83400012807D0F8
:1018D000A06B40F000500DE0A06B40F0006009E00C
:1018E0000027A7631098E16D3044884204D9A06BAB
:1018F00040F00070A0638BE0032084F8340020687F
:10190000C762606C012800D076024FF40071206835
:1019100000F08AFEDFF864B1012140B12368C3F80A
:1019200038B0A26B0243A26384F8341070E04FF029
:10193000FF30039010988946400204909020CDE932
:101940000507CDE90771BA4603A9206800F0EEFD4E
:101950001098012806D9202020633146206800F025
:10196000D1FF05E0102020633146206800F0E3FF3E
:101970005FEA000806D02168C1F838B0A06B40EAE1
:10198000080071E0049E27E0406B40041CD5DEB1E6
:101990005FF0000715F8010B009015F8011B361FCA
:1019A00040EA0120009015F8021B40EA0140009037
:1019B00015F8011C40EA016000906946206800F0BB
:1019C000FBFD7F1C082FE5D3FFF764F90B99411A43
:1019D0001A98814220D2F8B12068416B40F21A3245
:1019E0001142D1D0416BC90523D51099012920D9C5
:1019F000616C03291DD000F06BFFD0B12268C2F8E2
:101A000038B0A16B0143A16384F83490C4F830A0CE
:101A1000012011B0BDE8F08F2168C1F838B0A06B8B
:101A200040EA0800A06384F83490C4F830A0032092
:101A3000EFE72068416B090705D5C0F838B0A06B07
:101A400040F0080010E0416B890705D5C0F838B0B8
:101A5000A06B40F0020007E0416BC90606D5C0F854
:101A600038B0A06B40F01000A063CDE740F23A51CF
:101A7000816384F834900020CBE70000FF0540002C
:101A800070B515460E46040007D0A069B0F5807FFA
:101A900003D094F8410010B107E0012070BD002090
:101AA00084F84000204600F01DF804F10801206889
:101AB000FEF798FE3146A2682068FEF7C7FED4E91B
:101AC00001022946236BFEF76FFEA168206850F8DB
:101AD000212042F0010240F82120012084F8410039
:101AE000002070BDFEF79CBF10B5401EB0F1807F96
:101AF00001D3012010BD4FF0E02460610F21601779
:101B000001F034FD0020A06107202061002010BDFD
:101B100070B5040004D094F83900002510B106E037
:101B2000012070BD84F83850204600F023F82420AE
:101B300084F839002068C16821F40051C160204652
:101B400001F0AEFB2068016921F490410161206839
:101B5000416921F02A0141612068C16841F40051C6
:101B6000C160E563202084F8390084F83A00002041
:101B700070BD000030B585B000240094019402943B
:101B8000039400681449884224D11448816941F4BF
:101B900080418161816901F480410491816941F052
:101BA0000401816180690E4D00F0040004904FF43F
:101BB000007000900220019003200390694628469F
:101BC000FEF762FF2815CDE9000469462846029415
:101BD000FEF75AFF05B030BD00380140001002404A
:101BE000000801402DE9F84F044690F83A009A4663
:101BF00016460D46202851D1EDB1E6B194F83800D3
:101C000001284BD0012084F838000027E763222008
:101C100084F83A00FFF73EF8A6858146E685A0687D
:101C20004FF48058404501D1206938B12E46002537
:101C300084F8387027E00120BDE8F88F0026F7E728
:101C40004B46002220212046CDF800A001F084FB65
:101C500008B10320F0E726B1A06840451BD038B199
:101C600008E020684068C0F3080025F8020B07E090
:101C7000206980B12068406800F07F0006F8010B01
:101C8000E08D401EE085E08D0028D9D1202084F829
:101C90003A000020D0E720684068EFE70220CBE759
:101CA0002DE9F843044690F839001F4616460D46C4
:101CB00020284CD1C5B1BEB194F83800012846D0D7
:101CC000012084F838004FF00008C4F83C8021203F
:101CD00084F83900FEF7DEFFA6848146E684A0681A
:101CE000B0F5805F03D004E00120BDE8F8832069EF
:101CF00028B12E465FF0000584F838800EE00026FB
:101D0000FAE78021204601F027FBA0B9AEB116F812
:101D1000010B21684860E08C401EE084E08C4B465B
:101D20004FF0000200970028EBD14FF04001204611
:101D300001F012FB30B10320D7E735F8020BC0F3F6
:101D40000800E6E7202084F839000020CDE70220D3
:101D5000CBE7FEE72DE9F041444DE020288000204C
:101D6000AC1C2080072121801021218009212180A5
:101D70004FF0170CA4F800C00B22228041272780C7
:101D8000892222804B2222800A2222800C23238057
:101D90000E232380182626801B2626800F262680C9
:101DA0004FF0E10EA5F800E02080A4F800C04FF04D
:101DB0001A0CA4F800C04FF0040CA4F800C0238053
:101DC000062323802F23238045232380432323803E
:101DD00002232380228021804FF0320EA4F800E0FD
:101DE0004FF0360EA4F800E02680F7262E80A926B4
:101DF0002680512626802C26268082262680C026F4
:101E00002E80112626802180C12129802780C5218E
:101E100029802080228080212180B1212980B02149
:101E200021802680B42129802380B6212980238027
:101E300022212180B7212980C6212180BE2129802D
:101E40002080A4F800C0E92129802080022000F031
:101E50008DF93A202880552020802E807820FEF7AA
:101E600017FD29202880BDE8F0810000FEFF0160F9
:101E7000F0B500220D4B154614460A27B1FBF3F6C8
:101E800030368654B1FBF3F603FB1611B3FBF7F3C0
:101E9000521C861816F8016C302E00D125B16D1C2D
:101EA000641C0A2CEAD3F0BD0022F9E700CA9A3B71
:101EB00070B51D461446049E00F03AF904FB05F087
:101EC0003146BDE8704000F025B900002DE9F0432F
:101ED0001C46DDE90753203ADFF8A0802C27D6B254
:101EE00008F10209102B12D018230C2200F020F95F
:101EF000A8F80070224A06EB460002EB001600210B
:101F00004846735C0022DF071ED005801DE01023C9
:101F1000082200F00DF9A8F800701A49002001EB22
:101F200006164B46325C0021D70701D01D8000E029
:101F30001C80491C5208C9B20829F5D3401CC0B204
:101F40001028EFD3BDE8F0830480521C5B08D2B2A6
:101F5000082AD8D3491CCBB20021F25CD70701D0A4
:101F6000058000E00480491C5208C9B20429F5D359
:101F70005B1CD9B23029C4D3E4E70000FEFF016046
:101F800060550008704F00082DE9FC4F9B46DDE9C5
:101F90000B8716460D4604464FF4F07A4FF4A079AD
:101FA00018E0102F1BD004F10C00504502D900247A
:101FB0001835ADB205F11800484501D90024254671
:101FC000CDE900875B4629462046FFF77FFF0C34AA
:101FD000A4B2761C3278002AE3D1BDE8FC8F04F16C
:101FE0000800504502D900241035ADB205F11000AB
:101FF000484501D900242546CDE9008732785B4663
:1020000029462046FFF762FF083416F8012FA4B2D4
:10201000002AE4D1E1E700002DE9FE4F161ACDE9D0
:1020200000104FF000085D1A47464FF0FF30002EB9
:1020300002DD4FF0010102E003D14FF000018B46B9
:1020400002E08346C6F10006002D02DD4FF00100DC
:1020500002E003D14FF00000824602E08246C5F163
:102060000005AE4201DD344600E02C46601C4FF016
:10207000000902901AE000BFDDE900100C9A00F0A0
:10208000BBF8B0442F44A04505DD0198A8EB040837
:10209000584480B20190A74204DD00983F1B504491
:1020A00080B2009009F101001FFA80F90299894578
:1020B000E2DDBDE8FE8F2DE9F8438046DDE908400A
:1020C00000281D460F464046009403D0FFF7F0FE5F
:1020D000BDE8F88308EB0206761EB2B20B46FFF7A6
:1020E0009BFF3D446D1EABB2B2B2A9B24046009414
:1020F000FFF792FF4246ABB2394610460094FFF715
:102100008BFFABB2B2B2B0B239460094FFF784FF96
:10211000DEE7000010B5054C00222C232380A31C11
:1021200001E01980521C8242FBD310BDFEFF01600A
:1021300070B50D4D2A242C80060AAC1C2680C6B230
:1021400026801044401E020A2280C0B220802B202C
:102150002880080A2080C8B22080C818401E010AC2
:102160002180C0B2208070BDFEFF0160F0B5214922
:102170000022012436262A273F258B1E4FF02B0CE8
:102180004FF0DF0E012806D0022814D0032815D006
:10219000042821D123E01E80082008801F800A80A7
:1021A0000A800C800D80A3F800C00A800A800C8091
:1021B000A1F800E010E01E80682012E01E80C82018
:1021C00008801F800A800A800C800D80A3F800C060
:1021D0000A800A800C800D802C201880F0BD1E80A3
:1021E000A82008801F800A800A800C80A1F800E0E7
:1021F000ECE700000000026010B51446B0F5F07F77
:102200000CD2B1F5A07F09D201231A46FFF790FF47
:102210002146BDE810400120FFF77CBF10BD000043
:1022200010B508490848FEF7BFF9064CA41E00285F
:10223000207005D10022A11C044801F099FE6070B5
:1022400010BD000017000020D46C00088824002076
:1022500000B587B01C216846FDF79DFF17484FF079
:102260002041102201601649416000218160C16057
:10227000C0E904128161C16113020162C0E909135E
:10228000C1620163416381630F20FF230090CDE9A8
:102290000103CDE903021120CDE9050100226946C1
:1022A0000648FFF7EDFB08B1FEF77DF90548C16967
:1022B00041F48061C16107B000BD0000E428002046
:1022C000040100A0000001402DE9F04786B0002481
:1022D00049480094019402940394816941F04001BB
:1022E0008161816901F040010491816941F020011F
:1022F0008161816901F020010491816941F010013F
:102300008161816901F010010491816941F004014A
:102310008161816901F004010491816941F0080142
:1023200081618069DFF8D4A000F008004FF4005507
:102330000490002229465046FEF7A7FCDFF8C08033
:102340002F11002239464046FEF79FFCDFF8B4907B
:10235000002201214846FEF798FC0022022148464F
:10236000FEF793FC002208215046FEF78EFC002267
:1023700040215046FEF789FC6810CDE9000469460B
:1023800021480294FEF780FB009502260125039662
:10239000CDE9015469465046FEF776FB0097039657
:1023A000CDE9015469464046FEF76EFB0396009561
:1023B000CDE9015469464846FEF766FBCDE9006564
:1023C000CDE9024669464846FEF75EFB0820CDE9A6
:1023D0000005CDE9024669465046FEF755FB402010
:1023E000CDE90005CDE9024669465046FEF74CFBB3
:1023F00006B0BDE8F0870000001002400014014064
:10240000000C014000180140000801400648054941
:102410000160002141608160C1600161416104216E
:1024200081617047008001402C2900200C4810B5C4
:102430000A4901600B494160002181600C22C160A2
:10244000C0E904128161C161FFF762FB002803D07B
:10245000BDE81040FEF7A7B810BD000000380140ED
:10246000B029002090D00300FEE7704770470000BD
:102470002DE9F84300240F460646904613460C60AB
:10248000012269462848FFF7ADFB050020D19DF8E1
:102490000000182820D006DC01280BD002280BD021
:1024A000042804D104E0412827D0612825D0012543
:1024B00030700DE0802401E04FF480643070221D04
:1024C0004346B11C1848FFF78DFB050017D00024C8
:1024D00028463C60BDE8F88343460122694612481D
:1024E000FFF780FB18B99DF80000182803D00125DC
:1024F0009DF80000DCE70224DAE70225D8E7F1784E
:10250000B07881F0FF0188420AD130190179407911
:1025100000EB01282146301DFEF730F84045D7D0AA
:1025200000240125D4E70000B02900200A68426297
:102530004A688262D1E902231A43D1E904310B438C
:10254000C16A1A4321F0F7011143C16200207047AC
:10255000006800F00300704708444069704770B598
:102560000DF1100C11439CE87000234319432943DB
:102570004268314347F6FF639A430A4342600020B2
:1025800070BD10B5032101600220FEF781F9002023
:1025900010BDD0F8800070470A688260D1E901233D
:1025A0001A43D1E903310B43C1681A436FF30B019E
:1025B0001143C160002070470968C0F880100020F6
:1025C000704710B586B004463720CDE90010402092
:1025D0000290002003904FF48060049069462046EA
:1025E000FFF7DAFF41F288323721204600F0BCF9CC
:1025F00006B010BD10B504460A4886B00143292034
:10260000CDE9001040200290002003904FF480603C
:10261000049069462046FFF7BFFF204600F05CFAB1
:1026200006B010BD0000108010B586B00446102022
:10263000CDE9001040200290002003904FF480600C
:10264000049069462046FFF7A7FF41F28832102127
:10265000204600F089F906B010BD10B586B00446DA
:102660000620CDE9001040200290002003904FF496
:102670008060049069462046FFF78EFF41F2883261
:102680000621204600F070F906B010BD30B585B0C7
:1026900000240546009401944FF480600294CDE933
:1026A000034069462846FFF777FF0B484FF4FA517D
:1026B0000068B0FBF1F041F288314843401E03D27C
:1026C0004FF0004005B030BD696B0906F6D5C52056
:1026D000A8632046F6E700003000002070B585B002
:1026E00004464FF4D570009001A90820402500262B
:1026F00081E86100C001049069462046FFF74CFF65
:1027000012484FF4FA510068B0FBF1F041F2883101
:102710004843401E03D24FF0004005B070BD616BCE
:1027200011F0450FF5D00905F3D4606B400701D5D2
:10273000042003E0606BC00702D00120A063ECE737
:10274000606B400600D5A5633046E6E73000002008
:1027500010B586B004461220CDE90010402002904A
:10276000002003904FF48060049069462046FFF7F4
:1027700013FF41F288321221204600F0F5F806B02E
:1027800010BD10B586B004461120CDE900104020E0
:102790000290002003904FF4806004906946204628
:1027A000FFF7FAFE41F288321121204600F0DCF8F2
:1027B00006B010BD10B586B004460720CDE9002054
:1027C00040200290002003904FF4806004906946FE
:1027D0002046FFF7E1FE41F288320721204600F053
:1027E000C3F806B010BD10B586B004460021022023
:1027F000CDE90010C020CDE902014FF480600490C3
:1028000069462046FFF7C8FE204600F03DF906B0B5
:1028100010BD10B586B004460920CDE90010C020D7
:102820000290002003904FF4806004906946204697
:10283000FFF7B2FE204600F027F906B010BD10B534
:1028400086B0044600213320CDE900104020CDE9B8
:1028500002010001049069462046FFF79DFE41F207
:1028600088323321204600F07FF806B010BD10B545
:1028700086B004460D20CDE90010402002900020D3
:1028800003904FF48060049069462046FFF784FE71
:1028900041F288320D21204600F066F806B010BDE6
:1028A00030B585B00C46054600210320CDE9001067
:1028B0004020CDE902010001049069462846FFF757
:1028C0006BFE22460321284600F028F905B030BDF2
:1028D00010B586B0044600210C20CDE90010402040
:1028E000CDE902010001049069462046FFF754FE3D
:1028F000034A0C21204600F037F806B010BD000056
:1029000000E1F50510B586B004461920CDE90010A8
:1029100040200290002003904FF4806004906946AC
:102920002046FFF739FE41F288321921204600F097
:102930001BF806B010BD10B586B004461820CDE9CE
:10294000001040200290002003904FF4806004901B
:1029500069462046FFF720FE41F2883218212046C2
:1029600000F002F806B010BD454B10B51B684FF4DF
:10297000FA54B3FBF4F353435B1E02D24FF0004012
:1029800010BD426B12F0450FF6D01205F4D4426B25
:10299000520703D504218163084610BD426BD2075C
:1029A00002D00121816305E0C52282630269D2B2AF
:1029B0008A4201D0012010BD0021FFF7CDFD314931
:1029C000084201D1002010BD002802DA4FF000704B
:1029D00010BD410001D5402010BD810001D58020EF
:1029E00010BDC10002D54FF4807010BD010102D5A9
:1029F0004FF4007010BD410102D54FF4806010BD4E
:102A0000C10102D54FF4006010BD010202D54FF4A0
:102A1000805010BD410202D54FF4005010BD81021C
:102A200002D54FF4804010BDC10202D54FF40040E2
:102A300010BD410302D54FF4003010BD810302D513
:102A40004FF4802010BDC10302D54FF4002010BD0B
:102A5000010402D54FF4801010BD410402D54FF49B
:102A6000001010BD810402D54FF4800010BD000796
:102A700002D54FF4000010BD4FF4803010BD0000AF
:102A80003000002008E0FFFD12494FF4FA520968B7
:102A9000B1FBF2F141F288325143491E02D24FF0AC
:102AA00000407047426B12F0450FF6D01205F4D487
:102AB000416B490703D50421816308467047416B88
:102AC000C90703D00121816308467047C52181638E
:102AD00000207047300000200F494FF4FA52096877
:102AE000B1FBF2F141F288325143491E02D24FF05C
:102AF00000407047426B12F0450FF6D01205F4D437
:102B0000416B490703D50421816308467047C521FD
:102B100081630020704700003000002030B5204B5A
:102B20004FF4FA541B68B3FBF4F341F28834634367
:102B30005B1E02D24FF0004030BD446B14F0450FD5
:102B4000F6D02405F4D4436B5B0703D504218163DD
:102B5000084630BD436BDB0702D00121816303E0EF
:102B60000369DBB28B4201D0012030BDC5218163F6
:102B70000021FFF7F1FC10F4604F04D0410406D5AA
:102B80004FF4005030BD000C1080002030BD000418
:102B900002D54FF4805030BD4FF4803030BD00007E
:102BA000300000202DE9F04F89B00D460446FEF7B5
:102BB00071F8002683460096019637460821206862
:102BC000FFF732FD002834D1B4F85000010420682A
:102BD000FFF7F7FC00282CD1401E4FF00808CDE984
:102BE000020830204FF00209CDE904090120CDE9A7
:102BF000067002A92068FFF799FC2068FFF71FFE06
:102C0000002816D1EA4640F22A472068416B394233
:102C100012D1416B890204D5FFF7BBFC4AF82600AC
:102C2000761CFEF737F8A0EB0B00401CEDD14FF0FF
:102C3000004009B0BDE8F08F416B090703D5C0F82B
:102C400038800820F5E7416B890703D5C0F8389034
:102C50000220EEE7416B890603D5202181630846F7
:102C6000E7E740F23A518163019800BA2860009882
:102C700000BA68600020DCE710B590B0044601207F
:102C8000ADF838002068FFF763FC002854D0606C72
:102C9000032842D02068FFF7A6FD00284AD1002172
:102CA0002068FFF759FC606704212068FFF754FC97
:102CB000A06708212068FFF74FFCE0670C2120681F
:102CC000FFF74AFCC4F88000606C032825D00EA9E9
:102CD0002068FFF7E5FD00282CD1606C03281CD08C
:102CE000BDF83800206501042068FFF792FD002838
:102CF00020D100212068FFF72FFC606604212068A6
:102D0000FFF72AFCA06608212068FFF725FCE06693
:102D10000C212068FFF720FC206704212068FFF7C2
:102D20001BFC000DE06403A92046FEF74BFB30B10D
:102D30004FF0805010B010BD4FF08060FAE7B4F84B
:102D40005000002302042068FFF734FD0028F1D171
:102D500004F1100007C88DE8070094E80F00FFF7A2
:102D6000FEFB0020E6E700002DE9F84F00260446B0
:102D700000963546B0460068FFF788FC002827D14A
:102D80002068FFF7ABFC4FF0805B4FF001094FF676
:102D9000FF7748B1A6642068FFF778FC002817D1B8
:102DA000A06C012802D020E0C4F8489000212068DF
:102DB000FFF707FC58B918E000212068FFF701FC75
:102DC000002805D151462068FFF714FC10B1584681
:102DD000BDE8F88F00212068FFF7BEFB05464FEAEB
:102DE000D0780098401C009002E0DFF82CA00098FA
:102DF000B84202D2B8F1000FDED00098B84202D338
:102E00004FF08070E4E7680002D5C4F8449000E019
:102E100066640020DCE70000000010C110B5064C1D
:102E200001202070FDF7E4FA18B9207820F00100A5
:102E30002070207810BD00003C00002010B5124822
:102E400088B014460078C00702D0032008B010BD37
:102E5000B9B1012905D0022908D003290CD00420DA
:102E6000F4E76846FDF7B2FA069809E06846FDF710
:102E7000ADFA0798208004E06846FDF7A7FA0798A6
:102E800020600020E2E700003C0000202DE9F04136
:102E90001E46174608460125094C0A4B324639465C
:102EA000FDF7CCFA28B109E0641E02D20120BDE88A
:102EB000F081FDF791FA0028F6D100252846F6E7C3
:102EC000A086010000E1F50510B5064C0120207038
:102ED000FDF782FA18B9207820F0010020702078E0
:102EE00010BD00003C0000202DE9F0411E461746B1
:102EF00008460125094C0A4B32463946FDF7AEFA21
:102F000028B109E0641E02D20120BDE8F081FDF77E
:102F100063FA0028F6D100252846F6E7A0860100CE
:102F200000E1F5057047000030B587B00020029041
:102F30000390049005902AA000F01EF905A800F067
:102F40004FFA182468B14FF47845052830D004288A
:102F500034D002283ED031A000F00EF9002337A271
:102F600031E03D4800F008F94FF4FC60CDE9000481
:102F700000233AA282210A20FFF706F83B4800F01E
:102F8000FBF802A80599FEF773FF39A000F0F4F8EA
:102F900002A800F0F1F839A000F0EEF83AA000F035
:102FA000EBF8C820FDF774FCFDF704FF07B030BD57
:102FB0003BA000F0E1F8002349A204E04FA000F09C
:102FC000DBF8002354A2CDE9005482210A20FEF749
:102FD000DBFFEBE755A000F0CFF8002359A2F2E7A2
:102FE00057616974696E6720666F72207468652026
:102FF00066696C6520746F2062652073656E74204D
:103000002E2E2E202870726573732027612720745E
:103010006F2061626F7274290A0D00000A0D46610B
:10302000696C656420746F207265636569766520DC
:103030007468652066696C65210A0D004661696CDB
:10304000656420746F2072656365697665207468B5
:10305000652066696C650000E86C0008446F776E57
:103060006C6F616420646F6E65000000400000209A
:103070000A0D2053697A653A2000000020427974D5
:1030800065730D0A000000002D2D2D2D2D2D2D2DE9
:103090002D2D2D2D2D2D2D2D2D2D2D0A0000000037
:1030A0000A0A0D54686520696D6167652073697A45
:1030B0006520697320686967686572207468616E4D
:1030C0002074686520616C6C6F7765642073706133
:1030D0006365206D656D6F7279210A0D0000000037
:1030E00054686520696D6167652073697A65206938
:1030F0007320686967686572000000000A0A0D564F
:103100006572696669636174696F6E206661696C76
:103110006564210A0D000000566572696669636185
:1031200074696F6E206661696C6564000D0A0A41FE
:10313000626F7274656420627920757365722E0AFD
:103140000D00000041626F72746564206279207521
:103150007365720001B5074890F83910A02902D1B3
:10316000202180F839106423012269460148FEF7C6
:1031700097FD08BDB0290020002201E0521C92B248
:10318000815C0029FAD1014664230148FEF788BD1D
:10319000B0290020F0B5054600242A7820462346B1
:1031A000302A2ED16A78782A01D0582A29D10224CF
:1031B0001CE000BFA2F14106052E07D9A2F161076C
:1031C000052F03D91136092E04D913E0A2F13007D7
:1031D000092F01D8303A04E0052E01D8373A00E033
:1031E000573A641C02EB03130B2C04D22A5D002A0D
:1031F000E0D103E000202A5D002A01D101200B600C
:10320000F0BD2A5D62B16B2A01D04B2A02D10CB10C
:103210009B0205E06D2A01D04D2A04D11CB11B058B
:1032200001200B600AE0A2F13006092E0CD803EB56
:1032300083036FF02F0606EB43031344641C0B2C2F
:10324000DED20128DDD1F0BD0020F0BDFDF728BDA4
:1032500030B58FB028216846FCF79DFF14210AA8DD
:10326000FCF799FF01210804CDE900100024029425
:1032700002250491CDE907504FF4E010099068460B
:10328000FDF796FE0F20CDE90A056802CDE90C4056
:1032900002210AA80E94FDF79FFD0FB030BD7047C4
:1032A00070B5044600680169E26821F44051114399
:1032B00001612169A0680843616908432168CA68FF
:1032C00041F20C639A430243CA6020684169A269D3
:1032D00021F44071114341611E492068884202D1A6
:1032E000FDF720FE01E0FDF70DFE00EBC00101EB54
:1032F0000012606864218000B2FBF0F3B3FBF1F3CD
:103300006FF018067343B2FBF0F5B2FBF0F605EB75
:103310008305322303EB0515B5FBF1F5B6FBF1F69A
:1033200005F0F00505EB0615B2FBF0F6B2FBF0F088
:10333000B0FBF1F06FF01802504306EB800003EB96
:103340000010B0FBF1F0216800F00F002844886005
:1033500070BD0000003801402DE9F0419846174645
:103360000E460446069D1DE0681C1BD02DB1FDF7DE
:1033700091FCA0EB0800A84214D92068C16821F490
:10338000D071C1602068416921F0010141612020B4
:1033900084F8390084F83A00002084F838000320CB
:1033A000BDE8F0812068006836EA000004D0002003
:1033B000B842D9D00020F3E70120F9E741F4807149
:1033C00041F2210240004900CB0500D5401CC30357
:1033D00000D55040CB03F5D580B27047FEE7000022
:1033E0002DE9F14F0027DFF874A188B03E46B946B9
:1033F0003C46D346A9E000BF4FF000084546A0E098
:103400004FF47A7204A95648FFF732F860B10228E7
:103410006AD0B9F1000F00D0761C052E7CD9182097
:10342000FFF798FE18208AE00498002670B1022861
:1034300007D04B4908F0FF028B7893420BD0152040
:103440007DE00620FFF786FE02247AE00620FFF7E3
:1034500081FE012575E0B8F1000F14D082085846AE
:10346000091DFDF7EFF8E8B31820FFF773FE1820E9
:10347000FFF770FE5FF0040408F101001FFA80F806
:103480004FF001095DE0087968B30020354B091D54
:1034900002E01A54401C491C0A780AB14028F8D3AB
:1034A0004FF0000C03F800C060466B4601E01A5470
:1034B000401C11F8012F202A01D01028F7D303F85F
:1034C00000C006A91846FFF765FE08986FF4F221C0
:1034D0000068C84215D918204FF480148DF81400E4
:1034E000234602E01FE018E023E0012205A91E4860
:1034F000FEF7D6FB2346012205A91B48FEF7D0FBA9
:1035000005245046FDF774F80898069901600620D6
:10351000FFF720FE432009E010E00620FFF71AFE27
:1035200001252F460DE0049906208B44FFF712FE7B
:10353000A2E71820FFF70EFE182083E74320FFF7CD
:1035400009FE55EA04003FF45BAF57EA04003FF47C
:1035500053AF09B02046BDE8F08F000000700008AE
:103560008000002040000020B02900200907090E3B
:10357000002804DB00F1E02080F80014704700F020
:103580000F0000F1E02080F8141D704702E008C829
:10359000121F08C1002AFAD170477047002001E0CD
:1035A00001C1121F002AFBD17047000010B504466C
:1035B000002084F80402401EC4F82C02204601F0CA
:1035C00053FB08B1032010BDB4F8FE01A0F52A4159
:1035D000553901D0022010BD94F83600B4F83710E8
:1035E00040EA01210848B0EB012F08D094F85210AE
:1035F000B4F8532041EA0221B0EB012F01D10020A1
:1036000010BD012010BD00000046415400E0401CE8
:1036100002780AB18A42FAD1D0B27047F0B50022DE
:10362000184B144602EB420653F8265085B1D0F8E9
:103630000072BD420DD103EB8605D0F808626F68B9
:10364000B74206D12D89B0F80662B54204D000E039
:103650000124521C022AE5D3022A01D079B904E0E0
:103660005CB9022909D01220F0BD02EB420003EB45
:1036700080004089B0F5807F01D00020F0BD10208F
:10368000F0BD0000102A002030B50021064A0C468B
:1036900001EB410352F82350854201D142F8234007
:1036A000491C0229F4D330BD102A0020D0F824226E
:1036B000D0F80002490A90F80202B1FBF0F0121DA6
:1036C00002CA19B1884203D3401AF8E700207047B4
:1036D000116808447047D0F81422891E921E8A424D
:1036E00001D800207047D0F8282290F8020201FB90
:1036F000002070472DE9F0410F00054606D001F08B
:1037000053F802280BD20120BDE8F081D5F80C62F5
:103710001EB1D5F81402B04208D8012606E0411CBB
:10372000F2D0D5F814128142EED83E463446D5F890
:103730001402641CA04202D80224022E0AD321469D
:10374000284601F031F838B1411CDDD00128DBD02A
:10375000B442ECD10020D7E76FF0704221462846F2
:1037600001F09DFA30B957B122463946284601F09A
:1037700096FA20B1012812D001242046C4E7C5F8EA
:103780000C42D5F81002411CF7D0401EC5F81002BB
:1037900095F8050240F0010085F80502EDE74FF0CD
:1037A000FF34EAE72DE9F84F884682460D6800E0CD
:1037B0006D1C28782F28FBD05C28F9D00024DAF87B
:1037C00020722646A85D761C202817D32F2815D0F6
:1037D0005C2813D0FF2C32D2012100F011FE5FEAE9
:1037E00000092CD0B9F1800F04D2014668A0FFF780
:1037F0000DFF20BB27F81490641CE3E7AA19C8F852
:103800000020202801D2042517E0002515E000BF84
:1038100007EB440030F8020C20280DD02E280BD0E6
:103820006CB1002027F814000B222021DAF81802CE
:1038300001F013FA002606E0641E002CE8D10620F1
:10384000BDE8F88F761C37F816002028FAD02E280D
:10385000F8D01EB145F0030500E0641E2CB107EB63
:10386000440030F8020C2E28F7D1002081464FF09A
:10387000080B009037F8160006F101065FEA000811
:1038800024D0B8F1200F04D0B8F12E0F04D1A642F5
:1038900002D045F00305EDE70098584501D2A64255
:1038A0001AD1BBF10B0F0FD0A64201D045F0030592
:1038B0000CD84FF0080000904FEA896026464FF080
:1038C0000B0B4FEA1069D5E745F00305DAF818024B
:1038D0000178E52938D039E04046B8F1800F10D39F
:1038E000002100F08DFD5FEA000805D02B4901EBB7
:1038F000080010F8800C804645F00205B8F1000F72
:1039000004D0014626A0FFF781FE20B14FF05F08EA
:1039100045F003050FE0A8F14100192802D849F04D
:10392000020908E0A8F16100192804D8413049F0E3
:1039300001091FFA80F8DAF81822009902F80180CC
:103940000098401C009095E705210170BBF1080F1D
:1039500003D14FEA89604FEA1069C9F38100032857
:1039600003D06FEA0901890701D145F00205A907D3
:1039700009D409F00301012901D145F010050128FE
:1039800001D145F00805DAF81802C572002057E7A2
:10399000222A3A3C3E3F7C7F000000005867000826
:1039A0002B2C3B3D5B5D0000401E022815D20C4BCA
:1039B00000EB400203EB82014889B0F5807F05D01F
:1039C00008B1401E80B2488110B104E00020FAE73F
:1039D000002043F8220000207047022070470000BA
:1039E000102A00202DE9FC5F0546002100F014FAA2
:1039F00000286ED1FF204FF6FF7A00908146A5F88F
:103A000024A200BFD5F81012D5F8000201F02CF95D
:103A100006000ED1D5F81442207848B1E17AE528A5
:103A200001F03F0170D00A0704D50F296CD107E0DF
:103A3000042674E00F2903D0B9F1000F4DD052E0F5
:103A4000D5F8201291B3420608D5627B009220F08F
:103A50004000B5F806228146A5F82422484534D115
:103A6000627B0098824230D101912078A04620F0FC
:103A70004000401E00EB80010027DFF8A8B001EBFA
:103A8000C00601241BF8071001EB0800008874B180
:103A900000F0D2FC0446FF2E17D2019830F8160031
:103AA000761C00F0C9FCA0420FD102E030E0504586
:103AB0000BD17F1C0D2FE5D398F80000400609D5E7
:103AC00044B1019830F8160020B1FF2000F0FF0942
:103AD0001EE025E0A9F10100F8E7204601F09AF97F
:103AE000009988421BD0D5F81802C17AC9070BD1BA
:103AF0000A2101E0491E06D314F8012B10F8013BFE
:103B0000D21AF7D000E052B14FF0FF09A5F824A275
:103B10000021284600F008F806003FF473AF304655
:103B2000BDE8FC9FD86700082DE9F041B0F80662B7
:103B30000446761C30040F46000C37D0D4F810022F
:103B400098B3310773D1401CC4F81002D4F80C129A
:103B5000D4F8000231B190F80222521E12EA161F68
:103B600005D064E0B0F80802B0421FD95FE000F071
:103B70001BFE054601281ED9681C3AD0D4F8000265
:103B8000D0F81412A94249D87FB1D4F80C12FFF72B
:103B9000B1FD05000DD0012D0DD0681C29D0D4F841
:103BA000000201F09FF920BB07E0FFE70420BDE819
:103BB000F0810720FBE70220F9E74FF400720021B3
:103BC000D4F8000201F049F82946D4F80002FFF7C2
:103BD00082FDD4F8001200274FF00108C1F82C0232
:103BE00011E000BF80F80482D4F8000201F07AF9F5
:103BF00008B10120DBE7D4F80002D0F82C12491CF0
:103C00007F1CC0F82C12D4F8000290F80212B942BE
:103C1000E8D8D0F82C12C91BC0F82C12C4F80C52EA
:103C20002946D4F80002FFF756FDC4F81002A4F8A4
:103C30000662D4F8000206F00F0100EB4110C4F850
:103C400014020020B3E700002DE9FF5FD0F81872DE
:103C50000446D0F820620C223946684600F0F4FF92
:103C60009DF80B00C0071AD00020F8720125C4F897
:103C700020022B4632466946384600F055FD204664
:103C8000FFF7B0FE10B96D1C642DF2D3642D0CD07B
:103C900004280BD19DF80B00F872C4F820629DF83F
:103CA0000B0080070FD5002004E0072004B0BDE81A
:103CB000F09F401C36F810100029FAD10D21193060
:103CC000B0FBF1F600E001260021204600F0A4F848
:103CD000A0B90027D4F81012D4F8000200F0C4FFF5
:103CE00060B9D4F814020078E5280AD048B100275A
:103CF00001212046FFF718FF0028EBD0042812D03E
:103D000012E07F1C3046B742F2D1461E5FEA060A37
:103D10005FD0B4F806122046A1EB0A0100F07CF84F
:103D2000050003D074E00720054671E0D4F81802BE
:103D300001F070F8CDF80C00D4F81012D4F800029D
:103D400000F092FF050063D1D4F81412D4F8209249
:103D5000039848730F20C8720020087388760AF011
:103D6000FF0BC876ABF1010000EB800202EBC0054F
:103D700000234FF6FF7E274E4A1C01E0604503D02A
:103D800039F81500F4466D1CF75CC85516F8038029
:103D9000070A08F8027000B960465B1C0D2BEDD3D2
:103DA000704502D039F8150008B94BF0400B81F886
:103DB00000B0D4F80012012081F80402002120464E
:103DC000FFF7B2FE050023D1AAF101005FEA000A65
:103DD000B2D1D4F81012D4F8000200F045FF05006B
:103DE00016D1D4F814022022002104F5007400F04A
:103DF00034FFD4E905010B2200F026FFA0696169B8
:103E0000C07A00F0180008732168012081F80402CC
:103E100028464BE7D867000870B5A0F80612D0F81E
:103E200008320D460446012B40D0D4F80002D0F8E9
:103E3000141299423AD933B990F80012032906D1E5
:103E4000D0F824321BB190F80202060114E0B0F859
:103E50000812A9422AD9D0F8240214E000F0A4FCE8
:103E60000346401C20D0022B20D3D4F80002D0F807
:103E7000140298421AD9AD1BD4F80002B542194673
:103E8000ECD2FFF728FCC4F80C3278B100EB151027
:103E9000C4F81002D4F8000205F00F0100EB411045
:103EA000C4F81402002070BD012070BD022070BD56
:103EB000084910B50B5C002253B901220A540A18B4
:103EC00001EB8000127A406801681046884702467C
:103ED000104610BD282C002030B4054C231804EBEC
:103EE00080001B7A406804691846A44630BC6047CD
:103EF000282C002030B4054D2C1805EB8000247AC6
:103F0000406885682046AC4630BC6047282C0020BD
:103F1000044A111802EB8000097A4068426808469A
:103F200010470000282C002030B4054D2C1805EB5C
:103F30008000247A4068C5682046AC4630BC6047A3
:103F4000282C002010B5044600F0FEF900280DD101
:103F5000204600F0F7FF002808D1D4F82802FFF728
:103F600023FD002802D10021C4F8001210BD00007A
:103F70002DE9F74181B0904602980090684600F024
:103F8000D8FC040003D50B2004B0BDE8F0810E4E30
:103F9000002756F8245025B12846FFF775FB85F811
:103FA00000720198002801D080F8007246F82400C1
:103FB00002D0B8F1010F01D00020E5E7002202A9EC
:103FC00001A800F04BFADFE7380000202DE9F747A1
:103FD000ADF50D7D06000ED04FF0000802F01F0772
:103FE00027F001028EA980A8C6F8008200F036FAF8
:103FF000040005D0B7E009200DF5107DBDE8F0877D
:104000008AA886905A48889068468E9900F052FB9C
:10401000859D04000BD11DB1780803D0012102E079
:10402000062404E000216846FFF7F8FA044617F07A
:104030001C0F60D04FF0010ADCB1042C14D14C49A4
:104040000020183902E0401C022805D200EB400293
:1040500051F82220002AF6D1022804D06846FFF742
:10406000F3FD044600E01224859D47F0080754B193
:1040700079E0E87A10F0110F01D0072473E0780797
:1040800001D508246FE0380743D500F0EEFBA87394
:10409000010AE973010C2974000E687485F80B801D
:1040A00085F81C8085F81D8085F81E8085F81F80A6
:1040B0002946809800F0ACFC81460021284600F09B
:1040C000A1FE8099B9F1000F81F804A21FD0809859
:1040D0004946D0F82CA200F05EFE040043D180993E
:1040E000A9F10100C1F80C025146809800F0BCFD16
:1040F00004000AD037E0B4BBE87AC10601D5042435
:1041000031E0B90701D5C007B7D1380701D547F06D
:1041100020078098D0F82C02C6E98705780801D0DE
:10412000012100E00021684600F022FCC6F82802C8
:10413000D8B186F8067286F807824746294606F502
:104140000076809800F064FC3061287FD5F81D105F
:1041500040EA0120C6E90270B7617762809830605A
:10416000B0F80602B080204646E70224FBE70000D4
:10417000282A00202DE9F84F884600219946154647
:104180000446196000F0DEFE002812D194F8070200
:1041900000280ED194F80602C00709D0D4E98201A4
:1041A000081A01274FF0020A854200D90546A2E00D
:1041B0000720BDE8F88F00BFD4F80812C8057CD1ED
:1041C000D4F8000290F80222521E02EA512212F0A4
:1041D000FF0614D131B1D4F8242232B12046FFF7C2
:1041E00065FA06E0D4F8100203E0D4F8141200F0E7
:1041F000DBFA022823D3411C5BD0C4F81402D4F8A4
:104200001412D4F80002FFF766FAC0B130440090EF
:10421000680A5FEA000B2AD0D4F8001206EB0B0202
:1042200091F80202824201D9A0EB060B91F801023B
:104230005B464146009AFFF75DFED0BB03E084F881
:1042400007A20220B5E794F8060240060CD5D4F880
:1042500018120098081A584506D208EB40204FF46F
:104260000072214600F0F0FC4FEA4B2637E0D4F80C
:1042700018220098824221D094F8060240060ED5FA
:10428000D4F800020123214690F80102FFF74CFE0A
:1042900078B994F8060220F0400084F80602D4F8B9
:1042A00000020123214690F80102009AFFF722FE46
:1042B00020B184F8077201207BE702E00098C4F87F
:1042C0001802B4F80802C0F30800C0F50076AE4248
:1042D00000D92E4601193246404600F0B5FCD4F80C
:1042E0000802B0443044C4F80802D9F8000081192B
:1042F000AD1BC9F80010002D7FF45EAF002058E719
:1043000033B5ADF50D7D0D4600228DA980A800F0D6
:10431000A5F8040012D18AA886900A4888906846B9
:104320008D9900F0C7F9040008D1859828B12DB106
:104330002946684600F09BFA00E006240DF50F7D43
:10434000204630BD282A002070B5044600F0FAFD52
:10435000002811D194F806128A060DD5480612D508
:10436000D4F800020123214690F80102D4F8182263
:10437000FFF7DAFD08B1012070BD94F8060220F0C5
:10438000400084F80602D4F81C12D4F8000200F0B1
:104390006BFC0028F0D1D4F82052E87A40F02000DD
:1043A000E87294F80C022877B4F80C02000A6877D7
:1043B000D4F80C02000CA877D4F80C02000EE877B1
:1043C000D4F81012284604F5007400F01BFD00F02C
:1043D0004CFAA875010AE975010C2976000E687679
:1043E0000020A874E874A07920F02000A071216852
:1043F000012081F804022068BDE8704000F017BD7C
:10440000802804D30B4A51B1FF2801D900207047FE
:1044100002EB4000A0F58050B0F8000F704732F872
:104420001130834203D0491C89B28029F7D38031EF
:10443000C8B27047126800080021064B00E0491C12
:1044400033F81120002A04D08242F8D1024830F813
:104450001100704712690008F26A00082DE9FF4751
:104460004FF000090746C0F800901646084600F0D5
:1044700060FA050003D50B2004B0BDE8F0878A4838
:1044800050F82540A4B13C6094F8000228B194F89B
:104490000102FFF73DFDC1070CD084F80092E8B29D
:1044A00084F80102FFF704FDC10708D00320E3E709
:1044B0000C20E1E70EB1400704D40020DCE71EB178
:1044C000400701D50A20D7E7002529462046FFF7F7
:1044D0006DF8012823D100204FEA0D0704EB0011ED
:1044E00091F8C22101F5DF712AB10A7AD1F80910D9
:1044F00042EA012100E0002147F82010401C042876
:10450000ECD3002657F826502DB129462046FFF758
:104510004DF808B909E00220761C042EF2D30328D6
:1045200001D0E0BB01E00120A6E7B4F80B00B0F534
:10453000007F60D1E28A2AB994F82400D4F82510CB
:1045400040EA0122C4F81822217C84F803120129D0
:1045500001D002294FD1607B514384F80202F0B1AF
:10456000431E184247D1B4F81130A4F808321E0790
:1045700041D1B4F813602EB994F82060D4F82170BA
:1045800046EA0726B4F80EC0BCF1000F33D00CEB9E
:10459000010707EB1317BE422DD3F61B00E02AE0FC
:1045A000B6FBF0F038B3012640F6F678404500D36C
:1045B00002264FF6F678404500D30326801C2F4490
:1045C000C4F82872AC44C4F81402C4E9875C032E12
:1045D00013D083B16144C4F82412022E19D000F024
:1045E000010100EB400001EB500000BF00F2FF10A2
:1045F000B2EB502F0FD20D203EE7002BFBD194F8E9
:104600002C10D4F82D30800041EA0321C4F8241284
:10461000ECE74000EAE74FF0FF30C4F81002C4F8BE
:104620000C02802084F80502032E30D1208E012850
:104630002DD12046691C00F017FB40BB84F8059281
:10464000B4F8FE01A0F52A41553920D12078D4F8DC
:10465000011040EA01201549884218D194F8E4017C
:10466000D4F8E51140EA0120114988420FD194F8AD
:10467000E801D4F8E91140EA0120C4F8100294F8E6
:10468000EC01D4F8ED1140EA0120C4F80C0206490F
:1046900084F80062091F0888401C0880A4F80602FC
:1046A0002046FEF7F1FF08E7380000205252614132
:1046B0007272416173B50446019801782F2901D0C7
:1046C0005C2901D1401C01900025C4F808520198D2
:1046D0000078202806D200212046FFF79DFBC4F871
:1046E00014527CBD01A92046FFF75CF80028F8D1E0
:1046F0002046FFF777F9D4F81812C97A28B10428B0
:10470000EFD14907EDD405207CBD4907FCD4D4F88E
:104710001412C87AC006F6D5D4F8000200F078F971
:10472000C4F80802DEE700007CB516461C460546C4
:104730000B2200F089FA052C11D91A4A0CE000214D
:10474000B61C2346044663F35F044008E30300D528
:104750005440491C1029F4D330880028EFD1072198
:104760004FEA0D0204F00F003030392800D9C01D87
:104770005054491E2409F5D17E205054002000E0F9
:10478000401C884202D22B5C202BF9D1082902D28E
:10479000535C491C00E020232B54401C0828F5D30F
:1047A0007CBD0000211001002DE9F0410D460446BA
:1047B00002290DD3D4F81402A84209D994F80002B2
:1047C0004FF0FF36012807D002282AD0032836D020
:1047D00001263046BDE8F081D4F8200205EB5507EC
:1047E00000EB5721204600F03FFA0028F1D1C7F333
:1047F00008007F1C14F80080D4F8200200EB572139
:10480000204600F031FA0028E3D1C7F30800215C0C
:1048100048EA0120E90701D00609DAE7C0F30B06F0
:10482000D7E7D4F8200200EB1521204600F01CFA4F
:104830000028CED1E8B204EB40000688C9E7D4F8DE
:10484000200200EBD511204600F00EFA0028C0D15E
:1048500040F2FF1000EA850020440178D0F8010002
:1048600041EA002020F07046B3E7002070472DE9B0
:10487000F0410C4601F10902D0F8101279B300257D
:10488000D0F814322E26595D6D1C202919D0052927
:1048900000D1E521092D01D102F8016BA1F14107F9
:1048A000192F0CD81F7B092D02D34FF0100C01E0FB
:1048B0004FF0080C17EA0C0F01D02031C9B202F8F2
:1048C000011B0B2DDFD3D97A2172197FD3F81D502C
:1048D00041EA05212160198BA180D98AE1804FF03E
:1048E000000882F80080A669002E20D0D0F81012AF
:1048F0000025D1B1E169C1B1B0F82412A1F57F4220
:10490000FF3A12D0D0F820720BE00021FFF778FDBB
:1049100018B1E169491EA94201D8002505E070558A
:104920006D1C37F8020B0028EFD106F80580BDE8B2
:10493000F08110B504464FF0FF302268002A13D0F2
:10494000114600E0491C0B78202B0ED33A2BF9D1ED
:1049500012F8013B303B0A2B06D28A4204D1002BCD
:1049600002D1491C1846216010BD002010BD000076
:10497000F0B50346254AD3F80042002000EB40057D
:1049800052F82560A6420BD102EB8505D3F80862E8
:104990006F68B74204D12D89B3F80662B54202D0E0
:1049A000401C0228EAD302281AD1002002E0401C51
:1049B000022805D200EB400552F82550002DF6D113
:1049C000022815D000EB400542F8254002EB850493
:1049D000D3F808626660B3F806322381002363814E
:1049E000002900EB400102EB8101498902D019B195
:1049F0000020F0BD491C01E04FF4807100EB400342
:104A000002EB8302401C5181F0BD0000102A0020FF
:104A10000246488B92F80022032A02D1898A40EA92
:104A2000014070471CB5FCF743F9FEF711FCFDF798
:104A30004BFCFDF70DFCFDF7E9FCFDF7F1FBFDF785
:104A4000F5FC45A0FEF798FB4A4848F210454FF6A2
:104A5000E0760078182428B9012247494748FFF733
:104A6000B5FA60B14648006840684FF47A73012295
:104A700044494348FDF7B6F800283AD059E0FBF71F
:104A800067FCFBF7D3FDCDE90054002332A24FF4BD
:104A90008C710A20FDF778FACDE9006400233AA270
:104AA00064210A20FDF770FA3CA0FEF765FBFBF7D6
:104AB000E7FC68B14FF47840CDE9000400233EA242
:104AC00082210A20FDF760FA41A0FEF755FB30E095
:104AD0004FF4FC60CDE90004002343A282210A20A8
:104AE000FDF752FA44A0FEF747FB2448FFF72AFAE5
:104AF0001FE024480078632801D0432819D1FBF730
:104B000027FCFBF793FDCDE90054002312A24FF4DC
:104B100091710A20FDF738FACDE9006400233BA229
:104B200064210A20FDF730FA3DA0FEF725FBFEF7D1
:104B3000FBF972B640480168404A1140B1F1005F8C
:104B400008D141683E4A11603E4A1160006880F316
:104B500008888847FEE70000426F6F746C6F6164DD
:104B600065722056657273696F6E3A20312E302E51
:104B7000390000001600002030670008B826002029
:104B8000B029002014000020534443617264205572
:104B9000706772616465202E2E2E20000D0A53442A
:104BA000436172642055706772616465202E2E2EF9
:104BB00020200D0A00000000466C61736820646FBD
:104BC000776E6C6F6164206572726F720000000016
:104BD000466C61736820646F776E6C6F61642065EA
:104BE00072726F72200D0A00446F776E6C6F616491
:104BF00020646F6E650000000D0A446F776E6C6F65
:104C0000616420646F6E65200D0A000055534152A7
:104C10005420557064617465202E2E2E0000000013
:104C20000D0A555341525420557064617465202E0D
:104C30002E2E200D0A000000007000080000FE2F3C
:104C4000080000200400002004E000BF11F8013B30
:104C500000F8013B521EF9D27047C9B201E000F8DA
:104C6000011B521EFBD2704770B50546D0F82C02CE
:104C70000C460026A04210D0284600F033F906006A
:104C80000BD195F80102012322462946FFF732F99C
:104C900008B1741E0126C5F82C42304670BD2DE9BE
:104CA000F04717460D460446022903D3D4F81402F0
:104CB000A84202D80220BDE8F08794F8001207F05D
:104CC000FF084FF00109012920D0022950D0032903
:104CD000F0D1D4F8200200EBD5112046FFF7C4FF35
:104CE0000028E8D140F2FF1101EA85010A194FF0CE
:104CF0007043D2F8011003EA0121394311700B0A05
:104D000053700B0C9370090ED17041E0D4F820025F
:104D100005EB550600EB56212046FFF7A5FF0028BE
:104D2000C9D1C6F30800761C2044E90703D00178F6
:104D300068F31F1100E03946017084F80492D4F83A
:104D4000200200EB56212046FFF78EFF0028B2D14B
:104D5000C6F308012144EA0702D0C7F3071205E0B1
:104D60000A78C7F3032302F0F0021A430A700FE037
:104D7000D4F8200200EB15212046FFF775FF00282C
:104D800099D1E9B204EB41013A0A81F800804A70F6
:104D900084F804928FE72DE9F0410F460646022978
:104DA00017D3D6F81402B84213D9002523E03946A8
:104DB0003046FFF7F9FC040021D0012C09D0601C1B
:104DC00009D0002239463046FFF769FF050016D1A9
:104DD00003E0022513E0012511E0D6F81002411C82
:104DE00008D0401CC6F8100296F8050240F00100F9
:104DF00086F805022746D6F81402B842D7D82846C6
:104E0000BDE8F08181760A0AC2760A0C0275090EA5
:104E100041757047014600200B22430803EBC01088
:104E200011F8013B521E1844C0B2F6D1704770B55C
:104E3000044600F057F8050052D194F80002032808
:104E400046D194F80502012842D1420200212046B1
:104E5000FFF703FF552084F8FE01AA2084F8FF0124
:104E60005220207060706120A0704121E170722298
:104E700084F8E42184F8E52184F8E61184F8E70158
:104E8000D4F8100284F8E801010A84F8E911010C51
:104E900084F8EA11000E84F8EB01D4F80C0284F8CF
:104EA000EC01010A84F8ED11010C84F8EE11000EFA
:104EB00084F8EF01D4F81C220123521CC4F82C22E0
:104EC00094F801022146FFF72FF8002084F805022C
:104ED000002294F801021146FEF7FEFF00B1012501
:104EE000284670BD2DE9F041044690F804020027E1
:104EF00028B3D4F82C5294F8010201232A46214603
:104F0000FFF712F808B1012719E0002084F8040225
:104F1000D4F82002D4F81812281A88420FD294F834
:104F200003620AE0D4F818020123054494F8010250
:104F30002A462146FEF7F8FF761E022EF2D23846A8
:104F4000BDE8F08110B588B1D0F8001271B191F8C8
:104F500000225AB1B1F80622B0F80402824205D10B
:104F600091F80102FEF7D4FFC00700D0092010BD60
:104F70000000000000000000000000000000000031
:104F80000000181818181808080808001818000059
:104F90000000003C2424000000000000000000008D
:104FA000000000442424FF242424FF2212120000C5
:104FB0000000083C2E6A0E0C38686A6A2E1C080035
:104FC0000000002625151D16685854545262000032
:104FD0000000001C3434140C0E4A5363F61C00000D
:104FE00000000008080800000000000000000000A9
:104FF0000000402030101010101010102020400031
:105000000000020404080808080808080406030051
:1050100000000018187E183C5A1818000000000004
:105020000000000000080808FF0808080000000051
:105030000000000000000000000000000606020062
:1050400000000000000000007F00000000000000E1
:105050000000000000000000000000000606000044
:105060000000004020201010080804040201000085
:105070000000003C26424242424242623418000094
:1050800000000010181E1A18181818181818000018
:105090000000003C66426020301008047E7E000064
:1050A0000000003C6642603030604042261800003C
:1050B00000000020303828242622FF202020000075
:1050C0000000007C06020A3E62404063361C00007D
:1050D0000000001018080C3E46C2C242663C0000A8
:1050E0000000007E40602030101808080C0C000002
:1050F0000000003C6242623E3E424342663C000089
:105100000000003C62434363363C1018080C00006A
:105110000000000000000018000000001818000047
:10512000000000000000001800000000181808002F
:105130000000004020100806020408102040000073
:105140000000000000007F0000007F000000000061
:105150000000000204081020402010080602000091
:105160000000003C66626030100800000808000083
:105170000000003C4279696555555529023C000004
:105180000000001818183C24243E664242C3000068
:105190000000003E6242423E3E4242427E1E00000D
:1051A0000000003C66424202024242466C38000067
:1051B0000000001E32624242424242623E0E000045
:1051C0000000007E0202027E7E0202027E7E00005D
:1051D0000000007E020202023E0202020202000001
:1051E0000000003C66424202727242466C58000067
:1051F000000000424242427E7E4242424242000061
:105200000000001818181818181818181818000096
:105210000000004040404040404042623E1C0000D0
:105220000000006222121A0E1E12322262C2000018
:105230000000000202020202020202027E7E000060
:1052400000000066666666765E5A5A5A5A4A000040
:105250000000004246464E4A5A52726262620000A4
:105260000000003C6642424343434262261800006D
:105270000000003E624242427E0E02020202000034
:105280000000003C664242434343527226780000CD
:105290000000003E624242623E1232226242000040
:1052A0000000003C6662060C38604242663C00002A
:1052B0000000007E18181818181818181818000080
:1052C000000000424242424242424242663C0000EA
:1052D000000000434262662624341C18181800009F
:1052E000000000D95B5B5A5A5656666626260000B7
:1052F0000000006226241C18181C3426624300009B
:10530000000000436226341C1818181818180000F2
:105310000000007E60203010080C04067E7E000035
:10532000007808080808080808080808080878002D
:10533000000000020404040808101010202040405F
:10534000001E1010101010101010101010101E0061
:1053500000183442000000000000000000000000BF
:10536000000000000000000000000000000000FF3E
:10537000000C1810000000000000000000000000F9
:10538000000000000000003C62706E62725C000071
:10539000000000020202023E62424262661A0000FF
:1053A000000000000000003C62020242661C000097
:1053B000000000404040407E62424262665C000065
:1053C000000000000000003C627E024266380000DF
:1053D000000000780808087E08080808080800008F
:1053E000000000000000007C22223C023E62423E9F
:1053F000000000020202027A46424242424200009B
:1054000000000018180000181818181818180000C4
:105410000000003030000030303030303030321E8C
:1054200000000002020202321A1E1622624200002E
:105430000000001818181818181818181818000064
:1054400000000000000000EFDBDBDBDBDBDB00004B
:10545000000000000000007A464242424242000042
:10546000000000000000003C62424242661800005A
:10547000000000000000003E62424262661A020222
:10548000000000000000007E62424262665C404014
:1054900000000000000000340C04040404040000B8
:1054A000000000000000003C66063842663C000038
:1054B000000000000808083F0808080848700000BD
:1054C000000000000000004242424262765C0000A0
:1054D00000000000000000426624241C1818000090
:1054E00000000000000000DB5B5A56662624000026
:1054F00000000000000000263418183C264200007E
:1055000000000000000000426624241C1818080E49
:10551000000000000000007E30100804067E00003D
:1055200000603030303030301030303030302000DB
:1055300018181818181818181818181818181818EB
:10554000000604040404040408040404040404001D
:10555000044E720000000000000000000000000087
:10556000000000000000000000000000000000003B
:10557000000000000000000000000000000000002B
:10558000000000000000000000000000000000001B
:10559000000000000000600060006000600060002B
:1055A000600060006000600060006000600020003B
:1055B000000000007000700070000000000000009B
:1055C0000000000000000000980198019801980177
:1055D0009800000000000000000000000000000033
:1055E00000000000000000000000000000000000BB
:1055F0000000000000000000100310031003180357
:105600001801FF07FF07080188018801FF07FF074E
:105610008C008C008C008400C4000000000000009E
:105620000000000000002000F000F801AC032C0393
:105630002C032C003C007800E000E001A0032603CE
:1056400026032E03AC03FC01F00020002000000024
:1056500000000000000000000C021E0112011201F7
:105660009200920052005E002C03A0079004900468
:10567000D0048804880484070403000000000000AC
:1056800000000000000000007000F8008C008C0199
:105690008C00CC00780038003C003E066606E6022E
:1056A000C60386038E07FC067000000000000000A1
:1056B000000000000000000030003000300030002A
:1056C00030000000000000000000000000000000AA
:1056D00000000000000000000000000000000000CA
:1056E0000000000000000006000380018000C000F0
:1056F000C0004000400060006000600040004000CA
:105700004000C0008000800100030006000000008F
:1057100000000000020006000C0008001800100045
:105720003000200020002000200020002000200069
:1057300030001000180008000C00060002000000F5
:1057400000000000000000006000600062046606C7
:10575000FE07F801F000FC036E07620460006000C1
:105760000000000000000000000000000000000039
:1057700000000000000000000000000000006000C9
:105780006000600060006000FF0760006000600073
:105790006000600000000000000000000000000049
:1057A00000000000000000000000000000000000F9
:1057B00000000000000000000000000000000000E9
:1057C000000000000C000C000C00080004000000A9
:1057D00000000000000000000000000000000000C9
:1057E0000000000000000000FF07000000000000B3
:1057F00000000000000000000000000000000000A9
:105800000000000000000000000000000000000098
:105810000000000000000000000000000000000088
:10582000000000000C000C000C0000000000000054
:10583000000000000000000400040002000200015B
:1058400080018000C00040002000200010001000F7
:1058500008000C0004000600020000000000000028
:1058600000000000000000007000F8019C030C0321
:1058700006030606060606060606060606060606CB
:1058800006030C039C03F801600000000000000008
:105890000000000000000000400060007000780080
:1058A0006C006400600060006000600060006000E8
:1058B0006000600060006000000000000000000068
:1058C0000000000000000000F000FC018C03060353
:1058D00006030003000380018001C0006000700027
:1058E00038001C000C00FE07000000000000000053
:1058F0000000000000000000F000F8010C030603A7
:10590000060300030003E001E0018003000300063A
:10591000060606038C03F80170000000000000007A
:10592000000000000000000000018001C001C00173
:10593000E001B001B00198018C018C018601FF0FDC
:10594000FF0F8001800180010000000000000000C6
:1059500000000000000000000000FC030C000C0030
:105960000C000400FE01CE0306030003000600063F
:10597000030306038603FC01700000000000000022
:105980000000000000000000C001C00060006000D6
:1059900030001800F800FC030C0706060606060691
:1059A000060606060C03F803F000000000000000E5
:1059B00000000000000000000000FE0700060003D9
:1059C000000380018001C000C00060006000600032
:1059D000300030003000180000000000000000001F
:1059E00000000000000000007000FC010C03060332
:1059F000060306038C03FC01FC018E030606060663
:105A0000060606060E03FC01F00000000000000080
:105A100000000000000000007000FC018E0306037F
:105A200006070307060306038E03FC01F001C0000E
:105A3000E0006000300030001800000000000000AE
:105A40000000000000000000000000000000000056
:105A50000000000060006000000000000000000086
:105A60000000000060006000600000000000000016
:105A70000000000000000000000000000000000026
:105A80000000000060006000000000000000000056
:105A900000000000600060006000200020000000A6
:105AA0000000000000000000000400038001C000AE
:105AB0006000300018000C0006000C0018003000D8
:105AC0006000C0008001000300040000000000002E
:105AD00000000000000000000000000000000000C6
